:100000000C94B7000C94DF000C94DF000C94DF001C
:100010000C94DF000C94DF000C94DF000C94DF00E4
:100020000C94DF000C94DF000C94DF000C94DF00D4
:100030000C94DF000C94DF000C94DF000C94DF00C4
:100040000C94DF000C94DF000C94DF000C94DF00B4
:100050000C94DF000C94DF000C94DF000C94DF00A4
:100060000C94DF000C94DF006E616E00696E660018
:1000700000407A10F35A00A0724E18090010A5D45F
:10008000E80000E87648170000E40B54020000CABC
:100090009A3B000000E1F505000080969800000002
:1000A00040420F000000A086010000001027000061
:1000B0000000E803000000006400000000000A00E7
:1000C000000000000100000000002C76D888DC67EA
:1000D0004F0823DFC1DFAE59E1B1B796E5E3E45342
:1000E000C63AE651997696E8E6C28426EB898C9B5F
:1000F00062ED407C6FFCEFBC9C9F40F2BAA56FA5FF
:10010000F490055A2AF75C936B6CF9676DC11BFC80
:10011000E0E40D47FEF520E6B500D0ED902E03009B
:10012000943577050080841E080000204E0A0000E8
:1001300000C80C333333330F986E12831141EF8DA7
:100140002114893BE65516CFFEE6DB18D1844B38E7
:100150001BF77C1D901DA4BBE424203284725E2218
:100160008100C9F124ECA1E53D27A802BE031124BA
:100170001FBECFEFD8E0DEBFCDBF11E0A0E0B1E001
:10018000EAE0FAE102C005900D92A631B107D9F775
:1001900011E0A6E1B1E001C01D92A335B107E1F77E
:1001A00011E0CEE6D1E004C02297FE010E94FE09D4
:1001B000CA36D107C9F70E94F9010C94030D0C94BB
:1001C00000009B01AC01220F331F441F551F60E04C
:1001D00074E284EF90E00E94A30928502093B800B5
:1001E0000895982F84EA8093BC008091BC0087FF1B
:1001F000FCCF8091B900887F883051F59093BB0087
:1002000084E88093BC008091BC0087FFFCCF809184
:10021000B900887F8831E1F46093BB0084E8809363
:10022000BC008091BC0087FFFCCF8091B900887F23
:10023000883271F44093BB0084E88093BC008091C5
:10024000BC0087FFFCCF8091B900887F883219F00D
:100250008091B900089584E98093BC0081E00895FD
:10026000982FFA0184EA8093BC008091BC0087FF3C
:10027000FCCF8091B900887F8830B9F59093BB009E
:1002800084E88093BC008091BC0087FFFCCF809104
:10029000B900887F883149F56093BB0084E880937A
:1002A000BC008091BC0087FFFCCF8091B900887FA3
:1002B0008832D9F484EA8093BC008091BC0087FF27
:1002C000FCCF8091B900887F803179F49160909360
:1002D000BB0084E88093BC008091BC0087FFFCCF0A
:1002E0008091B900887F803419F08091B900089519
:1002F00084E88093BC008091BC0087FFFCCF809194
:10030000B900887F883511F085E0089584E98093ED
:10031000BC008091BB00808381E008951092BC00F6
:10032000089581E08093B10008959C0181E087BB2E
:1003300080EF8093B20091E007C0B89BFECF97BBDF
:100340008093B2002150304021153105B1F7089556
:10035000CF93DF93EC0105C084EF91E00E949501FB
:1003600021972097C9F7DF91CF9108951F93182FF8
:100370008A3019F48DE00E94B6018091C00085FF9B
:10038000FCCF1093C60080E090E01F91089580910B
:10039000C00087FFFCCF8091C60008958EE284B92B
:1003A00080E185B980E387B98EEB8AB9559A1092BE
:1003B000C50087E68093C40088E18093C10086E091
:1003C0008093C20086EB91E060E070E00E94F00A4A
:1003D000909317018093160190934A0180934901ED
:1003E00090934C0180934B01F89481E08093B1008D
:1003F0000895EF92FF920F931F93CF93DF930E9484
:10040000CE0188E191E00E9426038EE291E00E94F5
:100410003D040E948E0184E690E00E94A801C0E0A5
:10042000D1E088E191E00E94D60284E690E00E944B
:10043000A8018EE291E00E94EC038EE291E00E941E
:1004400042037B018C0188E191E00E9454022DB7A8
:100450003EB72A5030400FB6F8943EBF0FBE2DBFB6
:10046000EDB7FEB73196ADB7BEB71296DC93CE931B
:100470001197E282F38204831583668377838087F2
:1004800091870E94680B2DB73EB7265F3F4F0FB68E
:10049000F8943EBF0FBE2DBFC4CFFC016183089509
:1004A000FC016183089508950F931F938C01FC0153
:1004B00062817381882777FD8095982F0E94B40808
:1004C00024E237E94FEF5BE30E9440099B01AC0156
:1004D000F80120873187428753871F910F91089534
:1004E0000F931F938C01FC0164817581882777FD30
:1004F0008095982F0E94B40824E237E94FEF5BE320
:100500000E9440099B01AC01F8012487358746878A
:1005100057871F910F9108950F931F938C01FC0132
:1005200066817781882777FD8095982F0E94B4088F
:1005300024E237E94FEF5BE30E9440099B01AC01E5
:10054000F801208B318B428B538B1F910F910895B3
:1005500086EA809319010895EF92FF920F931F93FB
:100560008C01F62EE42E0E948E01F80181816F2D00
:100570004E2D0E94F1001F910F91FF90EF90089572
:10058000DF92EF92FF920F931F938C01D62E7A0188
:100590000E948E01F80181816D2DA7010E9430011A
:1005A0001F910F91FF90EF90DF900895CF92DF920F
:1005B000EF92FF920F931F938C0184E1C82ED12CF0
:1005C000C00ED11EC80162E3A6010E94C002F8015C
:1005D000E488C80163E3A6010E94C002F80194897F
:1005E00080E0FF248E299F2993838283C80164E3DE
:1005F000A6010E94C002F801E488C80165E3A601D3
:100600000E94C002F801948980E0FF248E299F296E
:1006100095838483C80166E3A6010E94C002F801A5
:10062000E488C80167E3A6010E94C002F80194892A
:1006300080E0FF248E299F299783868381E01F9184
:100640000F91FF90EF90DF90CF9008950F931F933D
:100650008C0160E573EC80E090E00E94E100C8014D
:100660006DE248E00E94AC02C80161E341E00E94F3
:10067000AC021F910F910895FC01628F0895FC0157
:10068000628F08950F931F938C01FC016381748125
:10069000882777FD8095982F0E94B40820E030E0ED
:1006A00046E651E40E944A089B01AC01F80121870B
:1006B0003287438754871F910F9108950F931F939B
:1006C0008C01FC0165817681882777FD8095982FC4
:1006D0000E94B40820E030E046E651E40E944A0857
:1006E0009B01AC01F801258736874787508B1F9106
:1006F0000F9108950F931F938C01FC016781708502
:10070000882777FD8095982F0E94B40820E030E07C
:1007100046E651E40E944A089B01AC01F801218B96
:10072000328B438B548B1F910F9108950F931F931E
:100730008C0160E77CECFC0121813281621B730B30
:1007400072836183882777FD8095982F0E94B40873
:1007500020E030E04CE853E40E944A0820E030E01A
:100760004CE052E40E94E6079B01AC01F801258BA6
:10077000368B478B508F1F910F91089580ED80939A
:1007800048010895EF92FF920F931F938C01F62E6C
:10079000E42E0E948E01F801828D6F2D4E2D0E9455
:1007A000F1001F910F91FF90EF900895DF92EF926B
:1007B000FF920F931F938C01D62E7A010E948E0117
:1007C000F801828D6D2DA7010E9430011F910F91BC
:1007D000FF90EF90DF900895DF92EF92FF920F93DA
:1007E0001F938C0189E1E82EF12CE00EF11EC80167
:1007F0006DE1A7010E94D603F801D18CC8016EE11A
:10080000A7010E94D6039D2D80E0F801218D30E0E4
:10081000822B932B94838383C8016FE1A7010E94ED
:10082000D603F801D18CC80160E2A7010E94D6036B
:100830009D2D80E0F801218D30E0822B932B968353
:100840008583C80161E2A7010E94D603F801D18C1B
:10085000C80162E2A7010E94D6039D2D80E0F80145
:10086000218D30E0822B932B9087878381E01F912D
:100870000F91FF90EF90DF9008950F931F938C01DD
:100880005D9A60E878E381E090E00E94E100C801B1
:1008900066E149E10E94C203C80165E149E00E94A6
:1008A000C203C80167E145E00E94C203C8016EE3CC
:1008B00041E00E94C2031F910F910895A1E1B0E0B1
:1008C000E4E6F4E00C94C5093C017F876E876A0179
:1008D000FC0117821682838181FD03C06FEF7FEFD9
:1008E0006FC39E012F5F3F4F398B288BF30123810C
:1008F000EE85FF8523FD859123FF8191FF87EE879C
:10090000882309F45AC3853251F4EE85FF8523FD0F
:10091000859123FF8191FF87EE87853229F490E04E
:10092000B3010E943C0BE2CF982F10E08824992459
:100930001032B0F49B3269F09C3228F4903251F0BE
:10094000933271F40BC09D3239F0903349F4116049
:1009500028C01260146025C0186023C0106121C037
:1009600017FD2AC0892F80538A3078F416FF06C0FD
:10097000FAE09F9E902C1124980E13C03AE0839EBB
:10098000802C1124880E10620CC09E3221F416FDBA
:1009900014C3106406C09C3611F4106802C0983667
:1009A00059F4EE85FF8523FD959123FF9191FF87F3
:1009B000EE87992309F0BCCF892F8554833020F42A
:1009C000812F8061905E07C0892F8556833008F0A3
:1009D0009FC1812F8F7E86FD02C076E0972E6FE348
:1009E000F62EF822953619F4F0E4FF2A07C0963661
:1009F00019F420E8F22A02C091109A94F7FE0AC076
:100A00003BE3391518F45CE3B52E02C0B92CB3945E
:100A100027E009C047E0491520F4BB2447E0942EA5
:100A2000F7CF292DBB24C60104969D878C87F6013C
:100A30006081718182819381AE014F5F5F4F0B2D89
:100A40000E94020A6C010981202E332400FF04C099
:100A500003FD02C01DE209C0F1FE02C01BE205C099
:100A6000F2FC02C010E001C010E2C1018C70907075
:100A7000892BB9F1112311F483E001C084E08815BA
:100A800010F088240AC0881AF3FC07C080E290E0C6
:100A9000B3010E943C0B8A94C9F7112329F0812FDE
:100AA00090E0B3010E943C0B23FE03C008E610E077
:100AB0000EC00CE610E00BC0E114F10409F0805206
:100AC00090E0B3010E943C0B0F5F1F4F05C0EF2C5D
:100AD000FF24F0E1EF22FF24F8018491882361F7DD
:100AE00014C1F7FE12C0BC0C24FE04C08A818133FD
:100AF00009F4BA941B141CF0BB24B3942DC0F8E085
:100B0000FB1550F538E0B32E27C0F6FC25C0892D23
:100B100090E08C159D054CF02CEFC2162FEFD206FD
:100B200024F030E8F32A01C09A94992049F0E2E0D9
:100B3000F0E0EC0FFD1FE90DF11D80818033A1F382
:100B4000F7FE0AC0B92CB394892D90E0C816D906D7
:100B500014F0992401C09C18F7FC03C025E030E094
:100B600009C01C141D041CF021E030E003C09601F4
:100B70002F5F3F4F112311F02F5F3F4F992029F036
:100B8000892D90E00196280F391F882D90E02817B5
:100B9000390714F0882401C0821A4F2C5524C20151
:100BA00089709070892B39F008C080E290E0B30121
:100BB0000E943C0B8A948820C1F7112329F0812FD1
:100BC00090E0B3010E943C0B43FE07C008C080E3E5
:100BD00090E0B3010E943C0B8A948820C1F7F7FE95
:100BE00046C08601D7FE02C000E010E076010894FE
:100BF000E11CF11CE01AF10A41E050E04C0F5D1FCE
:100C0000E40EF51E26014B185108892D90E0AA2408
:100C1000BB24A81AB90A5FEF0F3F150729F48EE22B
:100C200090E0B3010E943C0BC016D10634F0401690
:100C300051061CF4F701808101C080E3015010408F
:100C40000894E11CF11C0A151B052CF090E0B3017F
:100C50000E943C0BE0CF0C151D0539F49A819633A8
:100C600018F4953311F424FE81E390E04BC08A819F
:100C7000813309F00F7E90E0B3010E943C0B992074
:100C8000A1F08EE290E0B3010E943C0B12E0E1E0A3
:100C9000F0E0EC0FFD1FE10FF11D1F5F808190E080
:100CA000B3010E943C0B9A9491F744FC03C085E683
:100CB00090E002C085E490E0B3010E943C0BD7FCB9
:100CC00005C0C114D10441F404FF06C0D094C194FE
:100CD000D108D3948DE201C08BE290E0B3010E9471
:100CE0003C0B80E305C08F5F26EF3FEFC20ED31EA3
:100CF0003AE0C316D104BCF790E0B3010E943C0B6C
:100D0000C601C096B3010E943C0BCC84DD8452C165
:100D1000933631F0933799F0933509F059C023C0D9
:100D2000F601808189835E010894A11CB11C22E038
:100D300030E0C20ED31E21E0E22EF12C12C0F601EB
:100D4000A080B18016FD03C06FEF7FEF02C0692D58
:100D500070E022E030E0C20ED31EC5010E94E50A19
:100D60007C011F7713C0F601A080B18016FD03C07F
:100D70006FEF7FEF02C0692D70E022E030E0C20E1D
:100D8000D31EC5010E94DA0A7C01106813FF07C058
:100D90001BC080E290E0B3010E943C0B8A94882D36
:100DA00090E0E816F906A8F30FC0F50117FD85914C
:100DB00017FF81915F0190E0B3010E943C0B81100D
:100DC0008A940894E108F108E114F10471F7F2C083
:100DD000943611F0993689F517FF08C0F601208185
:100DE00031814281538184E090E00AC0F601808124
:100DF00091819C01442737FD4095542F82E090E07B
:100E0000C80ED91E9FE6F92EF12257FF09C0509552
:100E10004095309521953F4F4F4F5F4F90E8F92A0D
:100E2000CA01B901AE014F5F5F4F2AE030E00E9476
:100E30007D0BE82EE889EE1A41C0953721F41F7E1C
:100E40002AE030E01CC0197F9F3661F0903720F413
:100E5000983509F0B2C00FC0903739F0983709F0D3
:100E6000ACC004C028E030E00AC0106114FD14607A
:100E700020E130E004C014FD166020E132E017FFED
:100E800008C0F601608171818281938144E050E065
:100E900008C0F60180819181BC0180E090E042E0D1
:100EA00050E0C40ED51EAE014F5F5F4F0E947D0B18
:100EB000E82E5889E51A8FE7F82EF122F6FE0BC0CE
:100EC0008EEFF822E91438F4F4FE07C0F2FC05C0F6
:100ED0009FEEF92202C01E2D01C0192DF4FE0DC097
:100EE000FE01EE0DF11D8081803319F4E9EEFE2242
:100EF00008C01F5FF2FE05C003C08F2D867809F081
:100F00001F5F0F2DF3FC14C0F0FE0FC0181510F07A
:100F10009E2C0BC09E2C980C911A182D06C080E2B6
:100F200090E0B3010E943C0B1F5F1815C0F304C092
:100F3000181510F4811A01C0882404FF0FC080E343
:100F400090E0B3010E943C0B02FF1DC001FD03C0F5
:100F500088E790E00EC088E590E00BC0802F86788F
:100F600091F001FF02C08BE201C080E2F7FC8DE24C
:100F700090E0B3010E943C0B06C080E390E0B30117
:100F80000E943C0B9A94E914C0F3EA94E1E0F0E08B
:100F9000EC0FFD1FEE0DF11D808190E0B3010E946A
:100FA0003C0BEE2091F706C080E290E0B3010E9476
:100FB0003C0B8A948820C1F799CCF3016681778134
:100FC000CB016196E2E10C94E1095058BB27AA27B6
:100FD0000ED01CC10DD130F012D120F031F49F3F62
:100FE00011F41EF402C10EF4E095E7FBF8C0E92FFE
:100FF0001ED180F3BA17620773078407950718F0AC
:1010000071F49EF536C10EF4E0950B2EBA2FA02D8B
:101010000B01B90190010C01CA01A0011124FF27A5
:10102000591B99F0593F50F4503E68F11A16F040A0
:10103000A22F232F342F4427585FF3CF469537959F
:101040002795A795F0405395C9F77EF41F16BA0B64
:10105000620B730B840BBAF09150A1F0FF0FBB1F12
:10106000661F771F881FC2F70EC0BA0F621F731F5B
:10107000841F48F4879577956795B795F7959E3FB8
:1010800008F0B3CF9395880F08F09927EE0F979546
:10109000879508950CD0BAC0B2D040F0A9D030F0F6
:1010A00021F45F3F19F09BC05111E4C09EC0BFD036
:1010B00098F39923C9F35523B1F3951B550BBB271F
:1010C000AA2762177307840738F09F5F5F4F220FCC
:1010D000331F441FAA1FA9F333D00E2E3AF0E0E8C5
:1010E00030D091505040E695001CCAF729D0FE2F11
:1010F00027D0660F771F881FBB1F261737074807A3
:10110000AB07B0E809F0BB0B802DBF01FF27935858
:101110005F4F2AF09E3F510568F061C0ABC05F3F52
:10112000ECF3983EDCF3869577956795B795F79540
:101130009F5FC9F7880F911D9695879597F9089538
:10114000E1E0660F771F881FBB1F621773078407D4
:10115000BA0720F0621B730B840BBA0BEE1F88F7E3
:10116000E0950895E89409C097FB3EF4909580952A
:10117000709561957F4F8F4F9F4F9923A9F0F92F5D
:1011800096E9BB279395F695879577956795B795DB
:10119000F111F8CFFAF4BB0F11F460FF1BC06F5FC1
:1011A0007F4F8F4F9F4F16C0882311F096E911C0D3
:1011B000772321F09EE8872F762F05C0662371F0F4
:1011C00096E8862F70E060E02AF09A95660F771F08
:1011D000881FDAF7880F9695879597F9089597F9FC
:1011E0009F6780E870E060E008959FEF80EC0895CD
:1011F00000240A94161617061806090608950024F6
:101200000A9412161306140605060895092E03946F
:10121000000C11F4882352F0BB0F40F4BF2B11F4E3
:1012200060FF04C06F5F7F4F8F4F9F4F089557FD42
:101230009058440F551F59F05F3F71F04795880F44
:1012400097FB991F61F09F3F79F0879508951216DB
:1012500013061406551FF2CF4695F1DF08C0161687
:1012600017061806991FF1CF869571056105089438
:101270000895E894BB2766277727CB0197F908954F
:101280000BD0C4CFB5DF28F0BADF18F0952309F0F2
:10129000A6CFABCF1124EECFCADFA0F3959FD1F339
:1012A000950F50E0551F629FF001729FBB27F00D14
:1012B000B11D639FAA27F00DB11DAA1F649F662769
:1012C000B00DA11D661F829F2227B00DA11D621FB8
:1012D000739FB00DA11D621F839FA00D611D221F72
:1012E000749F3327A00D611D231F849F600D211D56
:1012F000822F762F6A2F11249F5750408AF0E1F0F9
:1013000088234AF0EE0FFF1FBB1F661F771F881F41
:1013100091505040A9F79E3F510570F060CFAACF81
:101320005F3FECF3983EDCF3869577956795B7952C
:10133000F795E7959F5FC1F7FE2B880F911D969556
:10134000879597F90895A1E21A2EAA1BBB1BFD01F0
:101350000DC0AA1FBB1FEE1FFF1FA217B307E40794
:10136000F50720F0A21BB30BE40BF50B661F771FEC
:10137000881F991F1A9469F76095709580959095CC
:101380009B01AC01BD01CF0108952F923F924F9276
:101390005F926F927F928F929F92AF92BF92CF9205
:1013A000DF92EF92FF920F931F93CF93DF93CDB70E
:1013B000DEB7CA1BDB0B0FB6F894DEBF0FBECDBF86
:1013C00009942A88398848885F846E847D848C8457
:1013D0009B84AA84B984C884DF80EE80FD800C8160
:1013E0001B81AA81B981CE0FD11D0FB6F894DEBF43
:1013F0000FBECDBFED010895EE0FFF1F0590F491D4
:10140000E02D0994283008F027E03327DA01990FFE
:10141000311D87FD916000966105710539F43260D8
:101420002E5F3D9330E32A95E1F708959F3F30F01A
:1014300080387105610509F03C5F3C5F3D93913058
:1014400008F08068911DDF93CF931F930F93FF9255
:10145000EF92192F987F9695E92F96959695E90F1B
:10146000FF27E653FF4F99273327EE24FF24A701D8
:10147000E70105900894079428F4360FE71EF81E3C
:10148000491F511D660F771F881F991F0694A1F7EA
:101490000590079428F4E70EF81E491F561FC11D3A
:1014A000770F881F991F661F0694A1F70590079470
:1014B00028F4F80E491F561FC71FD11D880F991F0A
:1014C000661F771F0694A1F70590079420F4490F33
:1014D000561FC71FD81F990F661F771F881F0694B6
:1014E000A9F784911095177041F0D695C795579537
:1014F0004795F794E7941A95C1F7E0E7F0E0689410
:101500001590159135916591959105907FE27395B0
:10151000E118F10A430B560BC90BD009C0F7E10CD7
:10152000F11E431F561FC91FD01D7EF4703311F4E6
:101530008A95E6CFE894015030F0080F0AF40027AE
:10154000021708F4202F2395022F7A3328F079E32D
:101550007D932A95E9F710C07D932A9589F6069424
:1015600097956795379517951794E118F10A430BEE
:10157000560BC90BD00998F023957E9173957A3359
:1015800008F070E37C932013B8F77E9170617D932F
:1015900030F0839571E37D9370E32A95E1F7112490
:1015A000EF90FF900F911F91CF91DF91992787FDC9
:1015B00090950895FC010590615070400110D8F796
:1015C000809590958E0F9F1F0895FC01615070408B
:1015D00001900110D8F7809590958E0F9F1F089568
:1015E0000F931F93CF93DF938C01EB01009731F49E
:1015F0006115710519F420E030E038C081E090E019
:101600006EE070E00E94DB0BFC019C01009771F121
:1016100080E88383209771F0D387C28781E8838332
:101620008091490190914A01892B21F4F0934A015C
:10163000E093490101151105C9F0118700878381E5
:101640008260838380914B0190914C01892B71F4CE
:10165000F0934C01E0934B0180914D0190914E012C
:10166000892B21F4F0934E01E0934D01C901DF91E4
:10167000CF911F910F9108950F931F93CF93DF93F5
:101680008C01EB018B8181FF1BC082FF0DC02E817D
:101690003F818C819D812817390764F4E881F981A5
:1016A0000193F983E88306C0E885F985802F0995C1
:1016B000892B31F48E819F8101969F838E8302C096
:1016C0000FEF1FEFC801DF91CF911F910F91089588
:1016D000A0E0B0E0EEE6FBE00C94D509FE01359603
:1016E0006191719180914B0190914C01AF010E94E9
:1016F0005E042096E2E00C94F109FA01AA27283052
:1017000051F1203181F1E8946F936E7F6E5F7F4FCE
:101710008F4F9F4FAF4FB1E03ED0B4E03CD0670F4A
:10172000781F891F9A1FA11D680F791F8A1F911D9D
:10173000A11D6A0F711D811D911DA11D20D009F4ED
:1017400068943F912AE0269F11243019305D31932F
:10175000DEF6CF010895462F4770405D4193B3E018
:101760000FD0C9F7F6CF462F4F70405D4A3318F0BF
:10177000495D31FD4052419302D0A9F7EACFB4E070
:10178000A6959795879577956795BA95C9F7009728
:101790006105710508959B01AC010A2E06945795C9
:1017A000479537952795BA95C9F7620F731F841F20
:1017B000951FA01D08950F931F93CF93DF93689FEC
:1017C0008001699F100D789F100D1124C8010E949F
:1017D000F70BEC01009729F060E070E0A8010E948F
:1017E000FC0CCE01DF91CF911F910F910895CF9303
:1017F000DF93BC018230910510F462E070E0A091AB
:101800005101B0915201ED01E0E0F0E040E050E024
:1018100021C0888199818617970769F48A819B8105
:10182000309719F09383828304C090935201809380
:101830005101FE0134C06817790738F4411551058C
:1018400019F08417950708F4AC01FE018A819B8189
:101850009C01E9012097E9F641155105A9F1CA015A
:10186000861B970B049708F4BA01E0E0F0E02AC069
:101870008D919C91119784179507F9F4641775075A
:1018800081F412968D919C911397309719F0938360
:10189000828304C09093520180935101FD013296DE
:1018A0004FC0CA01861B970BFD01E80FF91F61931A
:1018B000719302978D939C9343C0FD018281938124
:1018C0009C01D9011097A1F680914F019091500190
:1018D000892B41F480911101909112019093500154
:1018E00080934F014091130150911401411551050E
:1018F00041F44DB75EB780910F0190911001481BE4
:10190000590B20914F013091500124173507B0F445
:10191000CA01821B930B8617970780F0AB014E5FBD
:101920005F4F8417950750F0420F531F509350019B
:1019300040934F01F9016193719302C0E0E0F0E040
:10194000CF01DF91CF910895CF93DF93009709F4F2
:1019500050C0EC0122971B821A82A0915101B091D4
:101960005201109709F140E050E0AC17BD0708F1B3
:10197000BB83AA83FE0121913191E20FF31FAE17C1
:10198000BF0779F48D919C911197280F391F2E5F15
:101990003F4F3983288312968D919C9113979B8397
:1019A0008A834115510571F4D0935201C0935101BE
:1019B00020C012968D919C911397AD01009711F064
:1019C000DC01D3CFFA01D383C28321913191E20F9D
:1019D000F31FCE17DF0769F488819981280F391F1B
:1019E0002E5F3F4FFA01318320838A819B8193834D
:1019F0008283DF91CF910895DC0101C06D93415046
:0A1A00005040E0F70895F894FFCF7E
:101A0A0025312E31662C2025312E33660D0A002011
:061A1A0000530100000072
:00000001FF
